{
  "abi": [
    {
      "inputs": [],
      "stateMutability": "nonpayable",
      "type": "constructor"
    },
    {
      "anonymous": false,
      "inputs": [
        {
          "indexed": true,
          "internalType": "address",
          "name": "owner",
          "type": "address"
        },
        {
          "indexed": true,
          "internalType": "address",
          "name": "spender",
          "type": "address"
        },
        {
          "indexed": false,
          "internalType": "uint256",
          "name": "value",
          "type": "uint256"
        }
      ],
      "name": "Approval",
      "type": "event"
    },
    {
      "anonymous": false,
      "inputs": [
        {
          "indexed": true,
          "internalType": "address",
          "name": "user",
          "type": "address"
        },
        {
          "indexed": false,
          "internalType": "string",
          "name": "name",
          "type": "string"
        }
      ],
      "name": "KYC",
      "type": "event"
    },
    {
      "anonymous": false,
      "inputs": [
        {
          "indexed": true,
          "internalType": "address",
          "name": "from",
          "type": "address"
        },
        {
          "indexed": true,
          "internalType": "address",
          "name": "to",
          "type": "address"
        },
        {
          "indexed": false,
          "internalType": "uint256",
          "name": "value",
          "type": "uint256"
        }
      ],
      "name": "Transfer",
      "type": "event"
    },
    {
      "inputs": [
        {
          "internalType": "address",
          "name": "owner",
          "type": "address"
        },
        {
          "internalType": "address",
          "name": "spender",
          "type": "address"
        }
      ],
      "name": "allowance",
      "outputs": [
        {
          "internalType": "uint256",
          "name": "",
          "type": "uint256"
        }
      ],
      "stateMutability": "view",
      "type": "function"
    },
    {
      "inputs": [
        {
          "internalType": "address",
          "name": "spender",
          "type": "address"
        },
        {
          "internalType": "uint256",
          "name": "amount",
          "type": "uint256"
        }
      ],
      "name": "approve",
      "outputs": [
        {
          "internalType": "bool",
          "name": "",
          "type": "bool"
        }
      ],
      "stateMutability": "nonpayable",
      "type": "function"
    },
    {
      "inputs": [
        {
          "internalType": "address",
          "name": "account",
          "type": "address"
        }
      ],
      "name": "balanceOf",
      "outputs": [
        {
          "internalType": "uint256",
          "name": "",
          "type": "uint256"
        }
      ],
      "stateMutability": "view",
      "type": "function"
    },
    {
      "inputs": [
        {
          "internalType": "address",
          "name": "from",
          "type": "address"
        },
        {
          "internalType": "uint256",
          "name": "amount",
          "type": "uint256"
        }
      ],
      "name": "burn",
      "outputs": [],
      "stateMutability": "nonpayable",
      "type": "function"
    },
    {
      "inputs": [],
      "name": "decimals",
      "outputs": [
        {
          "internalType": "uint8",
          "name": "",
          "type": "uint8"
        }
      ],
      "stateMutability": "view",
      "type": "function"
    },
    {
      "inputs": [
        {
          "internalType": "address",
          "name": "spender",
          "type": "address"
        },
        {
          "internalType": "uint256",
          "name": "subtractedValue",
          "type": "uint256"
        }
      ],
      "name": "decreaseAllowance",
      "outputs": [
        {
          "internalType": "bool",
          "name": "",
          "type": "bool"
        }
      ],
      "stateMutability": "nonpayable",
      "type": "function"
    },
    {
      "inputs": [
        {
          "internalType": "address",
          "name": "spender",
          "type": "address"
        },
        {
          "internalType": "uint256",
          "name": "addedValue",
          "type": "uint256"
        }
      ],
      "name": "increaseAllowance",
      "outputs": [
        {
          "internalType": "bool",
          "name": "",
          "type": "bool"
        }
      ],
      "stateMutability": "nonpayable",
      "type": "function"
    },
    {
      "inputs": [
        {
          "internalType": "string",
          "name": "name",
          "type": "string"
        }
      ],
      "name": "kyc",
      "outputs": [],
      "stateMutability": "nonpayable",
      "type": "function"
    },
    {
      "inputs": [
        {
          "internalType": "address",
          "name": "to",
          "type": "address"
        },
        {
          "internalType": "uint256",
          "name": "amount",
          "type": "uint256"
        }
      ],
      "name": "mint",
      "outputs": [],
      "stateMutability": "nonpayable",
      "type": "function"
    },
    {
      "inputs": [],
      "name": "name",
      "outputs": [
        {
          "internalType": "string",
          "name": "",
          "type": "string"
        }
      ],
      "stateMutability": "view",
      "type": "function"
    },
    {
      "inputs": [],
      "name": "symbol",
      "outputs": [
        {
          "internalType": "string",
          "name": "",
          "type": "string"
        }
      ],
      "stateMutability": "view",
      "type": "function"
    },
    {
      "inputs": [],
      "name": "totalSupply",
      "outputs": [
        {
          "internalType": "uint256",
          "name": "",
          "type": "uint256"
        }
      ],
      "stateMutability": "view",
      "type": "function"
    },
    {
      "inputs": [
        {
          "internalType": "address",
          "name": "to",
          "type": "address"
        },
        {
          "internalType": "uint256",
          "name": "amount",
          "type": "uint256"
        }
      ],
      "name": "transfer",
      "outputs": [
        {
          "internalType": "bool",
          "name": "",
          "type": "bool"
        }
      ],
      "stateMutability": "nonpayable",
      "type": "function"
    },
    {
      "inputs": [
        {
          "internalType": "address",
          "name": "from",
          "type": "address"
        },
        {
          "internalType": "address",
          "name": "to",
          "type": "address"
        },
        {
          "internalType": "uint256",
          "name": "amount",
          "type": "uint256"
        }
      ],
      "name": "transferFrom",
      "outputs": [
        {
          "internalType": "bool",
          "name": "",
          "type": "bool"
        }
      ],
      "stateMutability": "nonpayable",
      "type": "function"
    }
  ],
  "bytecode": {
    "object": "0x60806040523480156200001157600080fd5b506040518060400160405280600981526020016825aca1902a37b5b2b760b91b815250604051806040016040528060038152602001624b594360e81b81525081600390816200006191906200011e565b5060046200007082826200011e565b505050620001ea565b634e487b7160e01b600052604160045260246000fd5b600181811c90821680620000a457607f821691505b602082108103620000c557634e487b7160e01b600052602260045260246000fd5b50919050565b601f8211156200011957600081815260208120601f850160051c81016020861015620000f45750805b601f850160051c820191505b81811015620001155782815560010162000100565b5050505b505050565b81516001600160401b038111156200013a576200013a62000079565b62000152816200014b84546200008f565b84620000cb565b602080601f8311600181146200018a5760008415620001715750858301515b600019600386901b1c1916600185901b17855562000115565b600085815260208120601f198616915b82811015620001bb578886015182559484019460019091019084016200019a565b5085821015620001da5787850151600019600388901b60f8161c191681555b5050505050600190811b01905550565b610f5f80620001fa6000396000f3fe608060405234801561001057600080fd5b50600436106100ea5760003560e01c806370a082311161008c578063a457c2d711610066578063a457c2d7146101d0578063a9059cbb146101e3578063c24d3d82146101f6578063dd62ed3e1461020957600080fd5b806370a082311461018c57806395d89b41146101b55780639dc29fac146101bd57600080fd5b806323b872dd116100c857806323b872dd14610142578063313ce56714610155578063395093511461016457806340c10f191461017757600080fd5b806306fdde03146100ef578063095ea7b31461010d57806318160ddd14610130575b600080fd5b6100f761021c565b6040516101049190610be3565b60405180910390f35b61012061011b366004610c4d565b6102ae565b6040519015158152602001610104565b6002545b604051908152602001610104565b610120610150366004610c77565b6102c8565b60405160128152602001610104565b610120610172366004610c4d565b6102ec565b61018a610185366004610c4d565b61030e565b005b61013461019a366004610cb3565b6001600160a01b031660009081526020819052604090205490565b6100f761031c565b61018a6101cb366004610c4d565b61032b565b6101206101de366004610c4d565b610335565b6101206101f1366004610c4d565b6103b5565b61018a610204366004610cd5565b6103c3565b610134610217366004610d47565b61046e565b60606003805461022b90610d7a565b80601f016020809104026020016040519081016040528092919081815260200182805461025790610d7a565b80156102a45780601f10610279576101008083540402835291602001916102a4565b820191906000526020600020905b81548152906001019060200180831161028757829003601f168201915b5050505050905090565b6000336102bc818585610499565b60019150505b92915050565b6000336102d68582856105be565b6102e1858585610638565b506001949350505050565b6000336102bc8185856102ff838361046e565b6103099190610db4565b610499565b61031882826107e7565b5050565b60606004805461022b90610d7a565b61031882826108b2565b60003381610343828661046e565b9050838110156103a85760405162461bcd60e51b815260206004820152602560248201527f45524332303a2064656372656173656420616c6c6f77616e63652062656c6f77604482015264207a65726f60d81b60648201526084015b60405180910390fd5b6102e18286868403610499565b6000336102bc818585610638565b61040282828080601f0160208091040260200160405190810160405280939291908181526020018383808284376000920191909152506109ed92505050565b1561040c57600080fd5b336000908152600560205260409020610426828483610e39565b50336001600160a01b03167fffafdd3cfa9ebf44c9348a2c494369d4368688b36a3abb8d7ff1cc78509fccd48383604051610462929190610efa565b60405180910390a25050565b6001600160a01b03918216600090815260016020908152604080832093909416825291909152205490565b6001600160a01b0383166104fb5760405162461bcd60e51b8152602060048201526024808201527f45524332303a20617070726f76652066726f6d20746865207a65726f206164646044820152637265737360e01b606482015260840161039f565b6001600160a01b03821661055c5760405162461bcd60e51b815260206004820152602260248201527f45524332303a20617070726f766520746f20746865207a65726f206164647265604482015261737360f01b606482015260840161039f565b6001600160a01b0383811660008181526001602090815260408083209487168084529482529182902085905590518481527f8c5be1e5ebec7d5bd14f71427d1e84f3dd0314c0f7b2291e5b200ac8c7c3b92591015b60405180910390a3505050565b60006105ca848461046e565b9050600019811461063257818110156106255760405162461bcd60e51b815260206004820152601d60248201527f45524332303a20696e73756666696369656e7420616c6c6f77616e6365000000604482015260640161039f565b6106328484848403610499565b50505050565b6001600160a01b03831661069c5760405162461bcd60e51b815260206004820152602560248201527f45524332303a207472616e736665722066726f6d20746865207a65726f206164604482015264647265737360d81b606482015260840161039f565b6001600160a01b0382166106fe5760405162461bcd60e51b815260206004820152602360248201527f45524332303a207472616e7366657220746f20746865207a65726f206164647260448201526265737360e81b606482015260840161039f565b6107098383836109f2565b6001600160a01b038316600090815260208190526040902054818110156107815760405162461bcd60e51b815260206004820152602660248201527f45524332303a207472616e7366657220616d6f756e7420657863656564732062604482015265616c616e636560d01b606482015260840161039f565b6001600160a01b03848116600081815260208181526040808320878703905593871680835291849020805487019055925185815290927fddf252ad1be2c89b69c2b068fc378daa952ba7f163c4a11628f55a4df523b3ef910160405180910390a3610632565b6001600160a01b03821661083d5760405162461bcd60e51b815260206004820152601f60248201527f45524332303a206d696e7420746f20746865207a65726f206164647265737300604482015260640161039f565b610849600083836109f2565b806002600082825461085b9190610db4565b90915550506001600160a01b038216600081815260208181526040808320805486019055518481527fddf252ad1be2c89b69c2b068fc378daa952ba7f163c4a11628f55a4df523b3ef910160405180910390a35050565b6001600160a01b0382166109125760405162461bcd60e51b815260206004820152602160248201527f45524332303a206275726e2066726f6d20746865207a65726f206164647265736044820152607360f81b606482015260840161039f565b61091e826000836109f2565b6001600160a01b038216600090815260208190526040902054818110156109925760405162461bcd60e51b815260206004820152602260248201527f45524332303a206275726e20616d6f756e7420657863656564732062616c616e604482015261636560f01b606482015260840161039f565b6001600160a01b0383166000818152602081815260408083208686039055600280548790039055518581529192917fddf252ad1be2c89b69c2b068fc378daa952ba7f163c4a11628f55a4df523b3ef91016105b1565b505050565b511590565b6001600160a01b0383161580610a2a5750610a0c83610b31565b8015610a2a575067016345785d8a00006001600160a01b0384163110155b610a925760405162461bcd60e51b815260206004820152603360248201527f4465706f7369746f7220646f6573206e6f7420686176652076616c6964204b5960448201527243206f722061636372656469746174696f6e2160681b606482015260840161039f565b6001600160a01b0382161580610aca5750610aac82610b31565b8015610aca575067016345785d8a00006001600160a01b0383163110155b6109e85760405162461bcd60e51b815260206004820152603260248201527f526563656976657220646f6573206e6f7420686176652076616c6964204b5943604482015271206f722061636372656469746174696f6e2160701b606482015260840161039f565b6001600160a01b03811660009081526005602052604081208054610bdc9190610b5990610d7a565b80601f0160208091040260200160405190810160405280929190818152602001828054610b8590610d7a565b8015610bd25780601f10610ba757610100808354040283529160200191610bd2565b820191906000526020600020905b815481529060010190602001808311610bb557829003601f168201915b5050505050511590565b1592915050565b600060208083528351808285015260005b81811015610c1057858101830151858201604001528201610bf4565b506000604082860101526040601f19601f8301168501019250505092915050565b80356001600160a01b0381168114610c4857600080fd5b919050565b60008060408385031215610c6057600080fd5b610c6983610c31565b946020939093013593505050565b600080600060608486031215610c8c57600080fd5b610c9584610c31565b9250610ca360208501610c31565b9150604084013590509250925092565b600060208284031215610cc557600080fd5b610cce82610c31565b9392505050565b60008060208385031215610ce857600080fd5b823567ffffffffffffffff80821115610d0057600080fd5b818501915085601f830112610d1457600080fd5b813581811115610d2357600080fd5b866020828501011115610d3557600080fd5b60209290920196919550909350505050565b60008060408385031215610d5a57600080fd5b610d6383610c31565b9150610d7160208401610c31565b90509250929050565b600181811c90821680610d8e57607f821691505b602082108103610dae57634e487b7160e01b600052602260045260246000fd5b50919050565b808201808211156102c257634e487b7160e01b600052601160045260246000fd5b634e487b7160e01b600052604160045260246000fd5b601f8211156109e857600081815260208120601f850160051c81016020861015610e125750805b601f850160051c820191505b81811015610e3157828155600101610e1e565b505050505050565b67ffffffffffffffff831115610e5157610e51610dd5565b610e6583610e5f8354610d7a565b83610deb565b6000601f841160018114610e995760008515610e815750838201355b600019600387901b1c1916600186901b178355610ef3565b600083815260209020601f19861690835b82811015610eca5786850135825560209485019460019092019101610eaa565b5086821015610ee75760001960f88860031b161c19848701351681555b505060018560011b0183555b5050505050565b60208152816020820152818360408301376000818301604090810191909152601f909201601f1916010191905056fea2646970667358221220f9fe9ba18d9e88a244b4ea81a9021604e9ad8bff419d2c06189e1dfcc92c4e7864736f6c63430008100033",
    "linkReferences": {}
  },
  "methodIdentifiers": {
    "allowance(address,address)": "dd62ed3e",
    "approve(address,uint256)": "095ea7b3",
    "balanceOf(address)": "70a08231",
    "burn(address,uint256)": "9dc29fac",
    "decimals()": "313ce567",
    "decreaseAllowance(address,uint256)": "a457c2d7",
    "increaseAllowance(address,uint256)": "39509351",
    "kyc(string)": "c24d3d82",
    "mint(address,uint256)": "40c10f19",
    "name()": "06fdde03",
    "symbol()": "95d89b41",
    "totalSupply()": "18160ddd",
    "transfer(address,uint256)": "a9059cbb",
    "transferFrom(address,address,uint256)": "23b872dd"
  },
  "id": 11
}